:1000000075891075A000900082780079007F27E83C
:10001000115FF5F0540F1180D2A3F5801170C2A3C7
:10002000E5F054F0C41180D2A2F5801170C2A2E9AB
:10003000115FF5F0540F11804480D2A1F58011704A
:10004000C2A1E5F054F0C41180D2A0F5801170C2B5
:10005000A0DFBCB83B030978FF08B93CB0010975C3
:10006000F00A84C425F0227B027AFADAFEDBFA2257
:10007000758B0E758DE9D28E308FFDC28EC28F22A8
:0C00800093223F065B4F666D7D077F6F8B
:00000001FF
