:0C09F6000A143F065B4F666D7D077F6FA3
:1009E300758901758CE9758A0ED28C308DFDC28CA8
:0309F300C28D2290
:08080000AB05AA048F828E8370
:100808007C007D0A12091B8E0C8F0DAE83AF827C93
:10081800007D0A12091B8C0E8D0F7C007D0AAF0328
:10082800AE0212091B8E108F11AE02AF037C007D41
:100838000A12091B8C128D13E4FFFE75A001E4FD5A
:10084800FCED64014C7012ED25E0240CF808E62458
:1008580014F8E64480F580800EED25E0240CF808B5
:10086800E62414F8E6F5801209E3E5A025E0F5A0F2
:100878000DBD00010CED64044C70C60FBF00010EE5
:06088800EF64274E70B57D
:01088E002247
:1009A600E4F508F509E4F50AF50BAD0BAC0AAF0959
:1009B600AE08120800050BE50B7002050AC3943C4D
:1009C600E50A6480948040E20509E509700205089D
:0D09D600C3943CE5086480948040CA80C34F
:0300000002088F64
:0C088F00787FE4F6D8FD75811D0208D6C4
:10091B00C2D5EC30E709B2D5E4C39DFDE49CFCEEF7
:10092B0030E715B2D5E4C39FFFE49EFE120951C315
:10093B00E49DFDE49CFC800312095130D507C3E410
:06094B009FFFE49EFE2266
:10089B000209A6E493A3F8E493A34003F68001F2C4
:1008AB0008DFF48029E493A3F85407240CC8C3335E
:1008BB00C4540F4420C8834004F456800146F6DF2D
:1008CB00E4800B01020408102040809009F6E47EBE
:1008DB00019360BCA3FF543F30E509541FFEE49322
:1008EB00A360010ECF54C025E060A840B8E493A3E9
:1008FB00FAE493A3F8E493A3C8C582C8CAC583CA14
:10090B00F0A3C8C582C8CAC583CADFE9DEE780BECB
:010A020000F3
:10095100BC000BBE0029EF8DF084FFADF022E4CC8A
:10096100F875F008EF2FFFEE33FEEC33FCEE9DEC53
:10097100984005FCEE9DFE0FD5F0E9E4CEFD22ED99
:10098100F8F5F0EE8420D21CFEADF075F008EF2FE3
:10099100FFED33FD4007985006D5F0F222C398FDD4
:0509A1000FD5F0EA2271
:00000001FF
