:1000000075403F75410675425B75434F7544667593
:10001000456D75467D75470775487F75496F754A0B
:100020003F85405085415185425275A00079507EF0
:100030000278407D0A7FFFE7D2A0F580118CC2A034
:10004000E6D2A1F580118CC2A1DFEC08DDE709DE64
:10005000E07FFFE7D2A0F580118CC2A0E6D2A1F527
:1000600080118CC2A1DFEC197E0278497D0A7FFFE6
:10007000E7D2A0F580118CC2A0E6D2A1F580118C48
:10008000C2A1DFEC18DDE719DEE0012A7B027AFA73
:05009000DAFEDBFA229C
:00000001FF
