:1000000075A00090008078507F0AEFFE79007A0199
:10001000E9F6081EEAF6081EE92AF6088AF0A9F0B1
:10002000FADEF57850EFFEE67C0075F00A84FA946B
:100030000A400DEAABF075F00A84FCE5F08BF0FAAB
:10004000EAC425F08CF0F608DEDD7850EFFC7EFF88
:10005000E6F5F0540FD2A1117EF5801175C2A1E52D
:10006000F054F0C4D2A0117EF5801175C2A0DEE07C
:1000700008DCDB014A7B027AFADAFEDBFA22932201
:0A0080003F065B4F666D7D077F6F42
:00000001FF
